{
  "contractName": "BarcaTokenCrowdsale",
  "abi": [
    {
      "constant": true,
      "inputs": [],
      "name": "hasClosed",
      "outputs": [
        {
          "name": "",
          "type": "bool"
        }
      ],
      "payable": false,
      "stateMutability": "view",
      "type": "function"
    },
    {
      "constant": true,
      "inputs": [],
      "name": "founderPercentage",
      "outputs": [
        {
          "name": "",
          "type": "uint256"
        }
      ],
      "payable": false,
      "stateMutability": "view",
      "type": "function"
    },
    {
      "constant": true,
      "inputs": [],
      "name": "rate",
      "outputs": [
        {
          "name": "",
          "type": "uint256"
        }
      ],
      "payable": false,
      "stateMutability": "view",
      "type": "function"
    },
    {
      "constant": true,
      "inputs": [],
      "name": "cap",
      "outputs": [
        {
          "name": "",
          "type": "uint256"
        }
      ],
      "payable": false,
      "stateMutability": "view",
      "type": "function"
    },
    {
      "constant": true,
      "inputs": [],
      "name": "initialSupply",
      "outputs": [
        {
          "name": "",
          "type": "uint256"
        }
      ],
      "payable": false,
      "stateMutability": "view",
      "type": "function"
    },
    {
      "constant": true,
      "inputs": [],
      "name": "goal",
      "outputs": [
        {
          "name": "",
          "type": "uint256"
        }
      ],
      "payable": false,
      "stateMutability": "view",
      "type": "function"
    },
    {
      "constant": true,
      "inputs": [],
      "name": "weiRaised",
      "outputs": [
        {
          "name": "",
          "type": "uint256"
        }
      ],
      "payable": false,
      "stateMutability": "view",
      "type": "function"
    },
    {
      "constant": true,
      "inputs": [],
      "name": "tokenSalePercentage",
      "outputs": [
        {
          "name": "",
          "type": "uint256"
        }
      ],
      "payable": false,
      "stateMutability": "view",
      "type": "function"
    },
    {
      "constant": true,
      "inputs": [],
      "name": "isOpen",
      "outputs": [
        {
          "name": "",
          "type": "bool"
        }
      ],
      "payable": false,
      "stateMutability": "view",
      "type": "function"
    },
    {
      "constant": true,
      "inputs": [],
      "name": "closingTime",
      "outputs": [
        {
          "name": "",
          "type": "uint256"
        }
      ],
      "payable": false,
      "stateMutability": "view",
      "type": "function"
    },
    {
      "constant": false,
      "inputs": [],
      "name": "finalize",
      "outputs": [],
      "payable": false,
      "stateMutability": "nonpayable",
      "type": "function"
    },
    {
      "constant": true,
      "inputs": [],
      "name": "capReached",
      "outputs": [
        {
          "name": "",
          "type": "bool"
        }
      ],
      "payable": false,
      "stateMutability": "view",
      "type": "function"
    },
    {
      "constant": true,
      "inputs": [],
      "name": "wallet",
      "outputs": [
        {
          "name": "",
          "type": "address"
        }
      ],
      "payable": false,
      "stateMutability": "view",
      "type": "function"
    },
    {
      "constant": true,
      "inputs": [
        {
          "name": "",
          "type": "uint256"
        }
      ],
      "name": "foundersTimelock",
      "outputs": [
        {
          "name": "",
          "type": "address"
        }
      ],
      "payable": false,
      "stateMutability": "view",
      "type": "function"
    },
    {
      "constant": true,
      "inputs": [],
      "name": "goalReached",
      "outputs": [
        {
          "name": "",
          "type": "bool"
        }
      ],
      "payable": false,
      "stateMutability": "view",
      "type": "function"
    },
    {
      "constant": true,
      "inputs": [],
      "name": "_alreadyMinted",
      "outputs": [
        {
          "name": "",
          "type": "uint256"
        }
      ],
      "payable": false,
      "stateMutability": "view",
      "type": "function"
    },
    {
      "constant": true,
      "inputs": [],
      "name": "finalized",
      "outputs": [
        {
          "name": "",
          "type": "bool"
        }
      ],
      "payable": false,
      "stateMutability": "view",
      "type": "function"
    },
    {
      "constant": true,
      "inputs": [],
      "name": "openingTime",
      "outputs": [
        {
          "name": "",
          "type": "uint256"
        }
      ],
      "payable": false,
      "stateMutability": "view",
      "type": "function"
    },
    {
      "constant": true,
      "inputs": [],
      "name": "releaseTime",
      "outputs": [
        {
          "name": "",
          "type": "uint256"
        }
      ],
      "payable": false,
      "stateMutability": "view",
      "type": "function"
    },
    {
      "constant": false,
      "inputs": [
        {
          "name": "refundee",
          "type": "address"
        }
      ],
      "name": "claimRefund",
      "outputs": [],
      "payable": false,
      "stateMutability": "nonpayable",
      "type": "function"
    },
    {
      "constant": true,
      "inputs": [
        {
          "name": "",
          "type": "uint256"
        }
      ],
      "name": "founders",
      "outputs": [
        {
          "name": "",
          "type": "address"
        }
      ],
      "payable": false,
      "stateMutability": "view",
      "type": "function"
    },
    {
      "constant": true,
      "inputs": [],
      "name": "_finalTotalSupply",
      "outputs": [
        {
          "name": "",
          "type": "uint256"
        }
      ],
      "payable": false,
      "stateMutability": "view",
      "type": "function"
    },
    {
      "constant": false,
      "inputs": [
        {
          "name": "beneficiary",
          "type": "address"
        }
      ],
      "name": "buyTokens",
      "outputs": [],
      "payable": true,
      "stateMutability": "payable",
      "type": "function"
    },
    {
      "constant": true,
      "inputs": [],
      "name": "token",
      "outputs": [
        {
          "name": "",
          "type": "address"
        }
      ],
      "payable": false,
      "stateMutability": "view",
      "type": "function"
    },
    {
      "inputs": [
        {
          "name": "_rate",
          "type": "uint256"
        },
        {
          "name": "_wallet",
          "type": "address"
        },
        {
          "name": "_token",
          "type": "address"
        },
        {
          "name": "_cap",
          "type": "uint256"
        },
        {
          "name": "_openingTime",
          "type": "uint256"
        },
        {
          "name": "_closingTime",
          "type": "uint256"
        },
        {
          "name": "_initialSupply",
          "type": "uint256"
        },
        {
          "name": "_founders",
          "type": "address[]"
        },
        {
          "name": "_releaseTime",
          "type": "uint256"
        }
      ],
      "payable": false,
      "stateMutability": "nonpayable",
      "type": "constructor"
    },
    {
      "payable": true,
      "stateMutability": "payable",
      "type": "fallback"
    },
    {
      "anonymous": false,
      "inputs": [],
      "name": "CrowdsaleFinalized",
      "type": "event"
    },
    {
      "anonymous": false,
      "inputs": [
        {
          "indexed": false,
          "name": "prevClosingTime",
          "type": "uint256"
        },
        {
          "indexed": false,
          "name": "newClosingTime",
          "type": "uint256"
        }
      ],
      "name": "TimedCrowdsaleExtended",
      "type": "event"
    },
    {
      "anonymous": false,
      "inputs": [
        {
          "indexed": true,
          "name": "purchaser",
          "type": "address"
        },
        {
          "indexed": true,
          "name": "beneficiary",
          "type": "address"
        },
        {
          "indexed": false,
          "name": "value",
          "type": "uint256"
        },
        {
          "indexed": false,
          "name": "amount",
          "type": "uint256"
        }
      ],
      "name": "TokensPurchased",
      "type": "event"
    }
  ],
  "bytecode": "0x60806040526032600a55600a600b553480156200001b57600080fd5b506040516200463b3803806200463b83398101806040526101208110156200004257600080fd5b81019080805190602001909291908051906020019092919080519060200190929190805190602001909291908051906020019092919080519060200190929190805190602001909291908051640100000000811115620000a157600080fd5b82810190506020810184811115620000b857600080fd5b8151856020820283011164010000000082111715620000d657600080fd5b505092919060200180519060200190929190505050600283811515620000f857fe5b048585888c8c8c60016000806101000a81548160ff02191690831515021790555060008311151562000192576040517f08c379a00000000000000000000000000000000000000000000000000000000081526004018080602001828103825260148152602001807f43726f776473616c653a2072617465206973203000000000000000000000000081525060200191505060405180910390fd5b600073ffffffffffffffffffffffffffffffffffffffff168273ffffffffffffffffffffffffffffffffffffffff16141515156200025e576040517f08c379a00000000000000000000000000000000000000000000000000000000081526004018080602001828103825260258152602001807f43726f776473616c653a2077616c6c657420697320746865207a65726f20616481526020017f647265737300000000000000000000000000000000000000000000000000000081525060400191505060405180910390fd5b600073ffffffffffffffffffffffffffffffffffffffff168173ffffffffffffffffffffffffffffffffffffffff16141515156200032a576040517f08c379a00000000000000000000000000000000000000000000000000000000081526004018080602001828103825260248152602001807f43726f776473616c653a20746f6b656e20697320746865207a65726f2061646481526020017f726573730000000000000000000000000000000000000000000000000000000081525060400191505060405180910390fd5b8260028190555081600160006101000a81548173ffffffffffffffffffffffffffffffffffffffff021916908373ffffffffffffffffffffffffffffffffffffffff16021790555080600060016101000a81548173ffffffffffffffffffffffffffffffffffffffff021916908373ffffffffffffffffffffffffffffffffffffffff1602179055505050506000811115156200042f576040517f08c379a00000000000000000000000000000000000000000000000000000000081526004018080602001828103825260198152602001807f43617070656443726f776473616c653a2063617020697320300000000000000081525060200191505060405180910390fd5b8060048190555050428210151515620004d6576040517f08c379a00000000000000000000000000000000000000000000000000000000081526004018080602001828103825260338152602001807f54696d656443726f776473616c653a206f70656e696e672074696d652069732081526020017f6265666f72652063757272656e742074696d650000000000000000000000000081525060400191505060405180910390fd5b818111151562000574576040517f08c379a00000000000000000000000000000000000000000000000000000000081526004018080602001828103825260378152602001807f54696d656443726f776473616c653a206f70656e696e672074696d652069732081526020017f6e6f74206265666f726520636c6f73696e672074696d6500000000000000000081525060400191505060405180910390fd5b816005819055508060068190555050506000600760006101000a81548160ff02191690831515021790555060008111151562000618576040517f08c379a000000000000000000000000000000000000000000000000000000000815260040180806020018281038252601e8152602001807f526566756e6461626c6543726f776473616c653a20676f616c2069732030000081525060200191505060405180910390fd5b620006316200072f640100000000026401000000009004565b6200063b62000759565b808273ffffffffffffffffffffffffffffffffffffffff1673ffffffffffffffffffffffffffffffffffffffff168152602001915050604051809103906000f0801580156200068e573d6000803e3d6000fd5b50600960006101000a81548173ffffffffffffffffffffffffffffffffffffffff021916908373ffffffffffffffffffffffffffffffffffffffff1602179055508060088190555050858311151515620006e757600080fd5b6005825110151515620006f957600080fd5b81600c9080519060200190620007119291906200076a565b5080600d81905550826013819055505050505050505050506200083f565b6000600160009054906101000a900473ffffffffffffffffffffffffffffffffffffffff16905090565b60405161188c8062002daf83390190565b828054828255906000526020600020908101928215620007e6579160200282015b82811115620007e55782518260006101000a81548173ffffffffffffffffffffffffffffffffffffffff021916908373ffffffffffffffffffffffffffffffffffffffff160217905550916020019190600101906200078b565b5b509050620007f59190620007f9565b5090565b6200083c91905b808211156200083857600081816101000a81549073ffffffffffffffffffffffffffffffffffffffff02191690555060010162000800565b5090565b90565b612560806200084f6000396000f3fe60806040526004361061013e576000357c0100000000000000000000000000000000000000000000000000000000900463ffffffff1680631515bc2b1461015057806317cf69141461017f5780632c4e722e146101aa578063355274ea146101d5578063378dc3dc14610200578063401938831461022b5780634042b66f1461025657806346daa2421461028157806347535d7b146102ac5780634b6753bc146102db5780634bb278f3146103065780634f9359451461031d578063521eb2731461034c57806361828ec3146103a35780637d3d65221461041e578063b06d24b91461044d578063b3f05b9714610478578063b7a8807c146104a7578063b91d4001146104d2578063bffa55d5146104fd578063d8e75f621461054e578063e0ade9f5146105c9578063ec8ac4d8146105f4578063fc0c546a14610638575b61014e61014961068f565b610697565b005b34801561015c57600080fd5b50610165610824565b604051808215151515815260200191505060405180910390f35b34801561018b57600080fd5b50610194610830565b6040518082815260200191505060405180910390f35b3480156101b657600080fd5b506101bf610836565b6040518082815260200191505060405180910390f35b3480156101e157600080fd5b506101ea610840565b6040518082815260200191505060405180910390f35b34801561020c57600080fd5b5061021561084a565b6040518082815260200191505060405180910390f35b34801561023757600080fd5b50610240610850565b6040518082815260200191505060405180910390f35b34801561026257600080fd5b5061026b61085a565b6040518082815260200191505060405180910390f35b34801561028d57600080fd5b50610296610864565b6040518082815260200191505060405180910390f35b3480156102b857600080fd5b506102c161086a565b604051808215151515815260200191505060405180910390f35b3480156102e757600080fd5b506102f0610885565b6040518082815260200191505060405180910390f35b34801561031257600080fd5b5061031b61088f565b005b34801561032957600080fd5b50610332610a07565b604051808215151515815260200191505060405180910390f35b34801561035857600080fd5b50610361610a1b565b604051808273ffffffffffffffffffffffffffffffffffffffff1673ffffffffffffffffffffffffffffffffffffffff16815260200191505060405180910390f35b3480156103af57600080fd5b506103dc600480360360208110156103c657600080fd5b8101908080359060200190929190505050610a45565b604051808273ffffffffffffffffffffffffffffffffffffffff1673ffffffffffffffffffffffffffffffffffffffff16815260200191505060405180910390f35b34801561042a57600080fd5b50610433610a7a565b604051808215151515815260200191505060405180910390f35b34801561045957600080fd5b50610462610a8e565b6040518082815260200191505060405180910390f35b34801561048457600080fd5b5061048d610a94565b604051808215151515815260200191505060405180910390f35b3480156104b357600080fd5b506104bc610aab565b6040518082815260200191505060405180910390f35b3480156104de57600080fd5b506104e7610ab5565b6040518082815260200191505060405180910390f35b34801561050957600080fd5b5061054c6004803603602081101561052057600080fd5b81019080803573ffffffffffffffffffffffffffffffffffffffff169060200190929190505050610abb565b005b34801561055a57600080fd5b506105876004803603602081101561057157600080fd5b8101908080359060200190929190505050610cd8565b604051808273ffffffffffffffffffffffffffffffffffffffff1673ffffffffffffffffffffffffffffffffffffffff16815260200191505060405180910390f35b3480156105d557600080fd5b506105de610d16565b6040518082815260200191505060405180910390f35b6106366004803603602081101561060a57600080fd5b81019080803573ffffffffffffffffffffffffffffffffffffffff169060200190929190505050610697565b005b34801561064457600080fd5b5061064d610d1c565b604051808273ffffffffffffffffffffffffffffffffffffffff1673ffffffffffffffffffffffffffffffffffffffff16815260200191505060405180910390f35b600033905090565b6000809054906101000a900460ff16151561071a576040517f08c379a000000000000000000000000000000000000000000000000000000000815260040180806020018281038252601f8152602001807f5265656e7472616e637947756172643a207265656e7472616e742063616c6c0081525060200191505060405180910390fd5b60008060006101000a81548160ff02191690831515021790555060003490506107438282610d45565b600061074e82610d7d565b905061076582600354610d9b90919063ffffffff16565b6003819055506107758382610e25565b8273ffffffffffffffffffffffffffffffffffffffff1661079461068f565b73ffffffffffffffffffffffffffffffffffffffff167f6faf93231a456e552dbc9961f58d9713ee4f2e69d15f1975b050ef0911053a7b8484604051808381526020018281526020019250505060405180910390a36107f38383610e33565b6107fb610e37565b6108058383610f16565b505060016000806101000a81548160ff02191690831515021790555050565b60006006544211905090565b600b5481565b6000600254905090565b6000600454905090565b60135481565b6000600854905090565b6000600354905090565b600a5481565b6000600554421015801561088057506006544211155b905090565b6000600654905090565b600760009054906101000a900460ff1615151561093a576040517f08c379a00000000000000000000000000000000000000000000000000000000081526004018080602001828103825260278152602001807f46696e616c697a61626c6543726f776473616c653a20616c726561647920666981526020017f6e616c697a65640000000000000000000000000000000000000000000000000081525060400191505060405180910390fd5b610942610824565b15156109b6576040517f08c379a00000000000000000000000000000000000000000000000000000000081526004018080602001828103825260208152602001807f46696e616c697a61626c6543726f776473616c653a206e6f7420636c6f73656481525060200191505060405180910390fd5b6001600760006101000a81548160ff0219169083151502179055506109d9610f1a565b7f9270cc390c096600a1c17c44345a1ba689fafd99d97487b10cfccf86cf73183660405160405180910390a1565b6000600454610a1461085a565b1015905090565b6000600160009054906101000a900473ffffffffffffffffffffffffffffffffffffffff16905090565b600e81600581101515610a5457fe5b016000915054906101000a900473ffffffffffffffffffffffffffffffffffffffff1681565b6000600854610a8761085a565b1015905090565b60145481565b6000600760009054906101000a900460ff16905090565b6000600554905090565b600d5481565b610ac3610a94565b1515610b5d576040517f08c379a00000000000000000000000000000000000000000000000000000000081526004018080602001828103825260228152602001807f526566756e6461626c6543726f776473616c653a206e6f742066696e616c697a81526020017f656400000000000000000000000000000000000000000000000000000000000081525060400191505060405180910390fd5b610b65610a7a565b151515610c00576040517f08c379a00000000000000000000000000000000000000000000000000000000081526004018080602001828103825260218152602001807f526566756e6461626c6543726f776473616c653a20676f616c2072656163686581526020017f640000000000000000000000000000000000000000000000000000000000000081525060400191505060405180910390fd5b600960009054906101000a900473ffffffffffffffffffffffffffffffffffffffff1673ffffffffffffffffffffffffffffffffffffffff166351cff8d9826040518263ffffffff167c0100000000000000000000000000000000000000000000000000000000028152600401808273ffffffffffffffffffffffffffffffffffffffff1673ffffffffffffffffffffffffffffffffffffffff168152602001915050600060405180830381600087803b158015610cbd57600080fd5b505af1158015610cd1573d6000803e3d6000fd5b5050505050565b600c81815481101515610ce757fe5b906000526020600020016000915054906101000a900473ffffffffffffffffffffffffffffffffffffffff1681565b60155481565b60008060019054906101000a900473ffffffffffffffffffffffffffffffffffffffff16905090565b610d4f8282611396565b601354610d6c82610d5e61085a565b610d9b90919063ffffffff16565b11151515610d7957600080fd5b5050565b6000610d946002548361142090919063ffffffff16565b9050919050565b6000808284019050838110151515610e1b576040517f08c379a000000000000000000000000000000000000000000000000000000000815260040180806020018281038252601b8152602001807f536166654d6174683a206164646974696f6e206f766572666c6f77000000000081525060200191505060405180910390fd5b8091505092915050565b610e2f82826114ed565b5050565b5050565b600960009054906101000a900473ffffffffffffffffffffffffffffffffffffffff1673ffffffffffffffffffffffffffffffffffffffff1663f340fa0134610e7e61068f565b6040518363ffffffff167c0100000000000000000000000000000000000000000000000000000000028152600401808273ffffffffffffffffffffffffffffffffffffffff1673ffffffffffffffffffffffffffffffffffffffff1681526020019150506000604051808303818588803b158015610efb57600080fd5b505af1158015610f0f573d6000803e3d6000fd5b5050505050565b5050565b610f22610a7a565b1561138c57610f2f610d1c565b73ffffffffffffffffffffffffffffffffffffffff166318160ddd6040518163ffffffff167c010000000000000000000000000000000000000000000000000000000002815260040160206040518083038186803b158015610f9057600080fd5b505afa158015610fa4573d6000803e3d6000fd5b505050506040513d6020811015610fba57600080fd5b8101908080519060200190929190505050601481905550610ffb6064610fed600a5460145461164a90919063ffffffff16565b61142090919063ffffffff16565b60158190555060008090505b600581101561128457611018610d1c565b600c8281548110151561102757fe5b9060005260206000200160009054906101000a900473ffffffffffffffffffffffffffffffffffffffff16600d5461105d611b40565b808473ffffffffffffffffffffffffffffffffffffffff1673ffffffffffffffffffffffffffffffffffffffff1681526020018373ffffffffffffffffffffffffffffffffffffffff1673ffffffffffffffffffffffffffffffffffffffff1681526020018281526020019350505050604051809103906000f0801580156110e9573d6000803e3d6000fd5b50600e826005811015156110f957fe5b0160006101000a81548173ffffffffffffffffffffffffffffffffffffffff021916908373ffffffffffffffffffffffffffffffffffffffff160217905550611140610d1c565b73ffffffffffffffffffffffffffffffffffffffff166340c10f19600e8360058110151561116a57fe5b0160009054906101000a900473ffffffffffffffffffffffffffffffffffffffff166111b660646111a8600b5460155461142090919063ffffffff16565b61164a90919063ffffffff16565b6040518363ffffffff167c0100000000000000000000000000000000000000000000000000000000028152600401808373ffffffffffffffffffffffffffffffffffffffff1673ffffffffffffffffffffffffffffffffffffffff16815260200182815260200192505050602060405180830381600087803b15801561123b57600080fd5b505af115801561124f573d6000803e3d6000fd5b505050506040513d602081101561126557600080fd5b8101908080519060200190929190505050508080600101915050611007565b5061128d610d1c565b73ffffffffffffffffffffffffffffffffffffffff1663986502756040518163ffffffff167c0100000000000000000000000000000000000000000000000000000000028152600401600060405180830381600087803b1580156112f057600080fd5b505af1158015611304573d6000803e3d6000fd5b50505050611310610d1c565b73ffffffffffffffffffffffffffffffffffffffff16633f4ba83a6040518163ffffffff167c0100000000000000000000000000000000000000000000000000000000028152600401600060405180830381600087803b15801561137357600080fd5b505af1158015611387573d6000803e3d6000fd5b505050505b611394611694565b565b61139e61086a565b1515611412576040517f08c379a00000000000000000000000000000000000000000000000000000000081526004018080602001828103825260188152602001807f54696d656443726f776473616c653a206e6f74206f70656e000000000000000081525060200191505060405180910390fd5b61141c828261188b565b5050565b60008083141561143357600090506114e7565b6000828402905082848281151561144657fe5b041415156114e2576040517f08c379a00000000000000000000000000000000000000000000000000000000081526004018080602001828103825260218152602001807f536166654d6174683a206d756c7469706c69636174696f6e206f766572666c6f81526020017f770000000000000000000000000000000000000000000000000000000000000081525060400191505060405180910390fd5b809150505b92915050565b6114f5610d1c565b73ffffffffffffffffffffffffffffffffffffffff166340c10f1983836040518363ffffffff167c0100000000000000000000000000000000000000000000000000000000028152600401808373ffffffffffffffffffffffffffffffffffffffff1673ffffffffffffffffffffffffffffffffffffffff16815260200182815260200192505050602060405180830381600087803b15801561159757600080fd5b505af11580156115ab573d6000803e3d6000fd5b505050506040513d60208110156115c157600080fd5b81019080805190602001909291905050501515611646576040517f08c379a000000000000000000000000000000000000000000000000000000000815260040180806020018281038252601f8152602001807f4d696e74656443726f776473616c653a206d696e74696e67206661696c65640081525060200191505060405180910390fd5b5050565b600061168c83836040805190810160405280601a81526020017f536166654d6174683a206469766973696f6e206279207a65726f00000000000081525061192c565b905092915050565b61169c610a7a565b156117e257600960009054906101000a900473ffffffffffffffffffffffffffffffffffffffff1673ffffffffffffffffffffffffffffffffffffffff166343d726d66040518163ffffffff167c0100000000000000000000000000000000000000000000000000000000028152600401600060405180830381600087803b15801561172757600080fd5b505af115801561173b573d6000803e3d6000fd5b50505050600960009054906101000a900473ffffffffffffffffffffffffffffffffffffffff1673ffffffffffffffffffffffffffffffffffffffff16639af6549a6040518163ffffffff167c0100000000000000000000000000000000000000000000000000000000028152600401600060405180830381600087803b1580156117c557600080fd5b505af11580156117d9573d6000803e3d6000fd5b50505050611881565b600960009054906101000a900473ffffffffffffffffffffffffffffffffffffffff1673ffffffffffffffffffffffffffffffffffffffff16638c52dc416040518163ffffffff167c0100000000000000000000000000000000000000000000000000000000028152600401600060405180830381600087803b15801561186857600080fd5b505af115801561187c573d6000803e3d6000fd5b505050505b6118896119f6565b565b61189582826119f8565b6004546118b2826118a461085a565b610d9b90919063ffffffff16565b11151515611928576040517f08c379a000000000000000000000000000000000000000000000000000000000815260040180806020018281038252601d8152602001807f43617070656443726f776473616c653a2063617020657863656564656400000081525060200191505060405180910390fd5b5050565b6000808311829015156119da576040517f08c379a00000000000000000000000000000000000000000000000000000000081526004018080602001828103825283818151815260200191508051906020019080838360005b8381101561199f578082015181840152602081019050611984565b50505050905090810190601f1680156119cc5780820380516001836020036101000a031916815260200191505b509250505060405180910390fd5b50600083858115156119e857fe5b049050809150509392505050565b565b600073ffffffffffffffffffffffffffffffffffffffff168273ffffffffffffffffffffffffffffffffffffffff1614151515611ac3576040517f08c379a000000000000000000000000000000000000000000000000000000000815260040180806020018281038252602a8152602001807f43726f776473616c653a2062656e656669636961727920697320746865207a6581526020017f726f20616464726573730000000000000000000000000000000000000000000081525060400191505060405180910390fd5b60008114151515611b3c576040517f08c379a00000000000000000000000000000000000000000000000000000000081526004018080602001828103825260198152602001807f43726f776473616c653a20776569416d6f756e7420697320300000000000000081525060200191505060405180910390fd5b5050565b6040516109e38062001b528339019056fe608060405234801561001057600080fd5b506040516060806109e38339810180604052606081101561003057600080fd5b8101908080519060200190929190805190602001909291908051906020019092919050505042811115156100f2576040517f08c379a00000000000000000000000000000000000000000000000000000000081526004018080602001828103825260328152602001807f546f6b656e54696d656c6f636b3a2072656c656173652074696d65206973206281526020017f65666f72652063757272656e742074696d65000000000000000000000000000081525060400191505060405180910390fd5b826000806101000a81548173ffffffffffffffffffffffffffffffffffffffff021916908373ffffffffffffffffffffffffffffffffffffffff16021790555081600160006101000a81548173ffffffffffffffffffffffffffffffffffffffff021916908373ffffffffffffffffffffffffffffffffffffffff160217905550806002819055505050506108578061018c6000396000f3fe608060405260043610610062576000357c0100000000000000000000000000000000000000000000000000000000900463ffffffff16806338af3eed1461006757806386d1a69f146100be578063b91d4001146100d5578063fc0c546a14610100575b600080fd5b34801561007357600080fd5b5061007c610157565b604051808273ffffffffffffffffffffffffffffffffffffffff1673ffffffffffffffffffffffffffffffffffffffff16815260200191505060405180910390f35b3480156100ca57600080fd5b506100d3610181565b005b3480156100e157600080fd5b506100ea610429565b6040518082815260200191505060405180910390f35b34801561010c57600080fd5b50610115610433565b604051808273ffffffffffffffffffffffffffffffffffffffff1673ffffffffffffffffffffffffffffffffffffffff16815260200191505060405180910390f35b6000600160009054906101000a900473ffffffffffffffffffffffffffffffffffffffff16905090565b6002544210151515610221576040517f08c379a00000000000000000000000000000000000000000000000000000000081526004018080602001828103825260328152602001807f546f6b656e54696d656c6f636b3a2063757272656e742074696d65206973206281526020017f65666f72652072656c656173652074696d65000000000000000000000000000081525060400191505060405180910390fd5b60008060009054906101000a900473ffffffffffffffffffffffffffffffffffffffff1673ffffffffffffffffffffffffffffffffffffffff166370a08231306040518263ffffffff167c0100000000000000000000000000000000000000000000000000000000028152600401808273ffffffffffffffffffffffffffffffffffffffff1673ffffffffffffffffffffffffffffffffffffffff16815260200191505060206040518083038186803b1580156102dd57600080fd5b505afa1580156102f1573d6000803e3d6000fd5b505050506040513d602081101561030757600080fd5b810190808051906020019092919050505090506000811115156103b8576040517f08c379a00000000000000000000000000000000000000000000000000000000081526004018080602001828103825260238152602001807f546f6b656e54696d656c6f636b3a206e6f20746f6b656e7320746f2072656c6581526020017f617365000000000000000000000000000000000000000000000000000000000081525060400191505060405180910390fd5b610426600160009054906101000a900473ffffffffffffffffffffffffffffffffffffffff16826000809054906101000a900473ffffffffffffffffffffffffffffffffffffffff1673ffffffffffffffffffffffffffffffffffffffff1661045c9092919063ffffffff16565b50565b6000600254905090565b60008060009054906101000a900473ffffffffffffffffffffffffffffffffffffffff16905090565b610544838473ffffffffffffffffffffffffffffffffffffffff1663a9059cbb90507c0100000000000000000000000000000000000000000000000000000000028484604051602401808373ffffffffffffffffffffffffffffffffffffffff1673ffffffffffffffffffffffffffffffffffffffff16815260200182815260200192505050604051602081830303815290604052907bffffffffffffffffffffffffffffffffffffffffffffffffffffffff19166020820180517bffffffffffffffffffffffffffffffffffffffffffffffffffffffff8381831617835250505050610549565b505050565b6105688273ffffffffffffffffffffffffffffffffffffffff166107df565b15156105dc576040517f08c379a000000000000000000000000000000000000000000000000000000000815260040180806020018281038252601f8152602001807f5361666545524332303a2063616c6c20746f206e6f6e2d636f6e74726163740081525060200191505060405180910390fd5b600060608373ffffffffffffffffffffffffffffffffffffffff16836040518082805190602001908083835b60208310151561062d5780518252602082019150602081019050602083039250610608565b6001836020036101000a0380198251168184511680821785525050505050509050019150506000604051808303816000865af19150503d806000811461068f576040519150601f19603f3d011682016040523d82523d6000602084013e610694565b606091505b509150915081151561070e576040517f08c379a00000000000000000000000000000000000000000000000000000000081526004018080602001828103825260208152602001807f5361666545524332303a206c6f772d6c6576656c2063616c6c206661696c656481525060200191505060405180910390fd5b6000815111156107d95780806020019051602081101561072d57600080fd5b810190808051906020019092919050505015156107d8576040517f08c379a000000000000000000000000000000000000000000000000000000000815260040180806020018281038252602a8152602001807f5361666545524332303a204552433230206f7065726174696f6e20646964206e81526020017f6f7420737563636565640000000000000000000000000000000000000000000081525060400191505060405180910390fd5b5b50505050565b60008060007fc5d2460186f7233c927e7db2dcc703c0e500b653ca82273b7bfad8045d85a4706001029050833f9150808214158015610822575060006001028214155b9250505091905056fea165627a7a72305820a5611ddb2c8be6679fb1a80ce823363cff4f6aacb06944de98d5be577fc824760029a165627a7a7230582098ca8733e7750051fc899284cb556fc792dbc8322e2c8f8cb9901522f3217b790029608060405234801561001057600080fd5b5060405160208061188c8339810180604052602081101561003057600080fd5b8101908080519060200190929190505050600061005a610236640100000000026401000000009004565b9050806000806101000a81548173ffffffffffffffffffffffffffffffffffffffff021916908373ffffffffffffffffffffffffffffffffffffffff1602179055507f4101e71e974f68df5e9730cc223280b41654676bbb052cdcc735c3337e64d2d981604051808273ffffffffffffffffffffffffffffffffffffffff1673ffffffffffffffffffffffffffffffffffffffff16815260200191505060405180910390a150600073ffffffffffffffffffffffffffffffffffffffff168173ffffffffffffffffffffffffffffffffffffffff16141515156101cb576040517f08c379a000000000000000000000000000000000000000000000000000000000815260040180806020018281038252602d8152602001807f526566756e64457363726f773a2062656e65666963696172792069732074686581526020017f207a65726f20616464726573730000000000000000000000000000000000000081525060400191505060405180910390fd5b80600260016101000a81548173ffffffffffffffffffffffffffffffffffffffff021916908373ffffffffffffffffffffffffffffffffffffffff1602179055506000600260006101000a81548160ff0219169083600281111561022b57fe5b02179055505061023e565b600033905090565b61163f8061024d6000396000f3fe6080604052600436106100ba576000357c0100000000000000000000000000000000000000000000000000000000900463ffffffff1680632348238c146100bf57806338af3eed1461011057806343d726d61461016757806351cff8d91461017e5780636809691a146101cf578063685ca194146102205780638c52dc41146102895780639af6549a146102a0578063c19d93fb146102b7578063c6dbdf61146102f0578063e3a9db1a14610347578063f340fa01146103ac575b600080fd5b3480156100cb57600080fd5b5061010e600480360360208110156100e257600080fd5b81019080803573ffffffffffffffffffffffffffffffffffffffff1690602001909291905050506103f0565b005b34801561011c57600080fd5b50610125610652565b604051808273ffffffffffffffffffffffffffffffffffffffff1673ffffffffffffffffffffffffffffffffffffffff16815260200191505060405180910390f35b34801561017357600080fd5b5061017c61067c565b005b34801561018a57600080fd5b506101cd600480360360208110156101a157600080fd5b81019080803573ffffffffffffffffffffffffffffffffffffffff169060200190929190505050610881565b005b3480156101db57600080fd5b5061021e600480360360208110156101f257600080fd5b81019080803573ffffffffffffffffffffffffffffffffffffffff169060200190929190505050610930565b005b34801561022c57600080fd5b5061026f6004803603602081101561024357600080fd5b81019080803573ffffffffffffffffffffffffffffffffffffffff169060200190929190505050610b25565b604051808215151515815260200191505060405180910390f35b34801561029557600080fd5b5061029e610b57565b005b3480156102ac57600080fd5b506102b5610d5d565b005b3480156102c357600080fd5b506102cc610ea1565b604051808260028111156102dc57fe5b60ff16815260200191505060405180910390f35b3480156102fc57600080fd5b50610305610eb8565b604051808273ffffffffffffffffffffffffffffffffffffffff1673ffffffffffffffffffffffffffffffffffffffff16815260200191505060405180910390f35b34801561035357600080fd5b506103966004803603602081101561036a57600080fd5b81019080803573ffffffffffffffffffffffffffffffffffffffff169060200190929190505050610ee1565b6040518082815260200191505060405180910390f35b6103ee600480360360208110156103c257600080fd5b81019080803573ffffffffffffffffffffffffffffffffffffffff169060200190929190505050610f2a565b005b6000809054906101000a900473ffffffffffffffffffffffffffffffffffffffff1673ffffffffffffffffffffffffffffffffffffffff16610430610ff9565b73ffffffffffffffffffffffffffffffffffffffff161415156104e1576040517f08c379a000000000000000000000000000000000000000000000000000000000815260040180806020018281038252602c8152602001807f5365636f6e646172793a2063616c6c6572206973206e6f74207468652070726981526020017f6d617279206163636f756e74000000000000000000000000000000000000000081525060400191505060405180910390fd5b600073ffffffffffffffffffffffffffffffffffffffff168173ffffffffffffffffffffffffffffffffffffffff16141515156105ac576040517f08c379a000000000000000000000000000000000000000000000000000000000815260040180806020018281038252602a8152602001807f5365636f6e646172793a206e6577207072696d61727920697320746865207a6581526020017f726f20616464726573730000000000000000000000000000000000000000000081525060400191505060405180910390fd5b806000806101000a81548173ffffffffffffffffffffffffffffffffffffffff021916908373ffffffffffffffffffffffffffffffffffffffff1602179055507f4101e71e974f68df5e9730cc223280b41654676bbb052cdcc735c3337e64d2d981604051808273ffffffffffffffffffffffffffffffffffffffff1673ffffffffffffffffffffffffffffffffffffffff16815260200191505060405180910390a150565b6000600260019054906101000a900473ffffffffffffffffffffffffffffffffffffffff16905090565b6000809054906101000a900473ffffffffffffffffffffffffffffffffffffffff1673ffffffffffffffffffffffffffffffffffffffff166106bc610ff9565b73ffffffffffffffffffffffffffffffffffffffff1614151561076d576040517f08c379a000000000000000000000000000000000000000000000000000000000815260040180806020018281038252602c8152602001807f5365636f6e646172793a2063616c6c6572206973206e6f74207468652070726981526020017f6d617279206163636f756e74000000000000000000000000000000000000000081525060400191505060405180910390fd5b6000600281111561077a57fe5b600260009054906101000a900460ff16600281111561079557fe5b141515610830576040517f08c379a00000000000000000000000000000000000000000000000000000000081526004018080602001828103825260298152602001807f526566756e64457363726f773a2063616e206f6e6c7920636c6f73652077686981526020017f6c6520616374697665000000000000000000000000000000000000000000000081525060400191505060405180910390fd5b60028060006101000a81548160ff0219169083600281111561084e57fe5b02179055507f088672c3a6e342f7cd94a65ba63b79df24a8973927b4d05d803c44bbf787d12f60405160405180910390a1565b61088a81610b25565b1515610924576040517f08c379a00000000000000000000000000000000000000000000000000000000081526004018080602001828103825260338152602001807f436f6e646974696f6e616c457363726f773a207061796565206973206e6f742081526020017f616c6c6f77656420746f2077697468647261770000000000000000000000000081525060400191505060405180910390fd5b61092d81611001565b50565b6000809054906101000a900473ffffffffffffffffffffffffffffffffffffffff1673ffffffffffffffffffffffffffffffffffffffff16610970610ff9565b73ffffffffffffffffffffffffffffffffffffffff16141515610a21576040517f08c379a000000000000000000000000000000000000000000000000000000000815260040180806020018281038252602c8152602001807f5365636f6e646172793a2063616c6c6572206973206e6f74207468652070726981526020017f6d617279206163636f756e74000000000000000000000000000000000000000081525060400191505060405180910390fd5b6000600160008373ffffffffffffffffffffffffffffffffffffffff1673ffffffffffffffffffffffffffffffffffffffff1681526020019081526020016000205490506000600160008473ffffffffffffffffffffffffffffffffffffffff1673ffffffffffffffffffffffffffffffffffffffff16815260200190815260200160002081905550610ad3818373ffffffffffffffffffffffffffffffffffffffff1661121490919063ffffffff16565b8173ffffffffffffffffffffffffffffffffffffffff167f7084f5476618d8e60b11ef0d7d3f06914655adb8793e28ff7f018d4c76d505d5826040518082815260200191505060405180910390a25050565b600060016002811115610b3457fe5b600260009054906101000a900460ff166002811115610b4f57fe5b149050919050565b6000809054906101000a900473ffffffffffffffffffffffffffffffffffffffff1673ffffffffffffffffffffffffffffffffffffffff16610b97610ff9565b73ffffffffffffffffffffffffffffffffffffffff16141515610c48576040517f08c379a000000000000000000000000000000000000000000000000000000000815260040180806020018281038252602c8152602001807f5365636f6e646172793a2063616c6c6572206973206e6f74207468652070726981526020017f6d617279206163636f756e74000000000000000000000000000000000000000081525060400191505060405180910390fd5b60006002811115610c5557fe5b600260009054906101000a900460ff166002811115610c7057fe5b141515610d0b576040517f08c379a00000000000000000000000000000000000000000000000000000000081526004018080602001828103825260328152602001807f526566756e64457363726f773a2063616e206f6e6c7920656e61626c6520726581526020017f66756e6473207768696c6520616374697665000000000000000000000000000081525060400191505060405180910390fd5b6001600260006101000a81548160ff02191690836002811115610d2a57fe5b02179055507f599d8e5a83cffb867d051598c4d70e805d59802d8081c1c7d6dffc5b6aca2b8960405160405180910390a1565b600280811115610d6957fe5b600260009054906101000a900460ff166002811115610d8457fe5b141515610e1f576040517f08c379a00000000000000000000000000000000000000000000000000000000081526004018080602001828103825260388152602001807f526566756e64457363726f773a2062656e65666963696172792063616e206f6e81526020017f6c79207769746864726177207768696c6520636c6f736564000000000000000081525060400191505060405180910390fd5b600260019054906101000a900473ffffffffffffffffffffffffffffffffffffffff1673ffffffffffffffffffffffffffffffffffffffff166108fc3073ffffffffffffffffffffffffffffffffffffffff16319081150290604051600060405180830381858888f19350505050158015610e9e573d6000803e3d6000fd5b50565b6000600260009054906101000a900460ff16905090565b60008060009054906101000a900473ffffffffffffffffffffffffffffffffffffffff16905090565b6000600160008373ffffffffffffffffffffffffffffffffffffffff1673ffffffffffffffffffffffffffffffffffffffff168152602001908152602001600020549050919050565b60006002811115610f3757fe5b600260009054906101000a900460ff166002811115610f5257fe5b141515610fed576040517f08c379a000000000000000000000000000000000000000000000000000000000815260040180806020018281038252602b8152602001807f526566756e64457363726f773a2063616e206f6e6c79206465706f736974207781526020017f68696c652061637469766500000000000000000000000000000000000000000081525060400191505060405180910390fd5b610ff6816113ac565b50565b600033905090565b6000809054906101000a900473ffffffffffffffffffffffffffffffffffffffff1673ffffffffffffffffffffffffffffffffffffffff16611041610ff9565b73ffffffffffffffffffffffffffffffffffffffff161415156110f2576040517f08c379a000000000000000000000000000000000000000000000000000000000815260040180806020018281038252602c8152602001807f5365636f6e646172793a2063616c6c6572206973206e6f74207468652070726981526020017f6d617279206163636f756e74000000000000000000000000000000000000000081525060400191505060405180910390fd5b6000600160008373ffffffffffffffffffffffffffffffffffffffff1673ffffffffffffffffffffffffffffffffffffffff1681526020019081526020016000205490506000600160008473ffffffffffffffffffffffffffffffffffffffff1673ffffffffffffffffffffffffffffffffffffffff168152602001908152602001600020819055508173ffffffffffffffffffffffffffffffffffffffff166108fc829081150290604051600060405180830381858888f193505050501580156111c1573d6000803e3d6000fd5b508173ffffffffffffffffffffffffffffffffffffffff167f7084f5476618d8e60b11ef0d7d3f06914655adb8793e28ff7f018d4c76d505d5826040518082815260200191505060405180910390a25050565b803073ffffffffffffffffffffffffffffffffffffffff1631101515156112a3576040517f08c379a000000000000000000000000000000000000000000000000000000000815260040180806020018281038252601d8152602001807f416464726573733a20696e73756666696369656e742062616c616e636500000081525060200191505060405180910390fd5b60008273ffffffffffffffffffffffffffffffffffffffff168260405180600001905060006040518083038185875af1925050503d8060008114611303576040519150601f19603f3d011682016040523d82523d6000602084013e611308565b606091505b505090508015156113a7576040517f08c379a000000000000000000000000000000000000000000000000000000000815260040180806020018281038252603a8152602001807f416464726573733a20756e61626c6520746f2073656e642076616c75652c207281526020017f6563697069656e74206d6179206861766520726576657274656400000000000081525060400191505060405180910390fd5b505050565b6000809054906101000a900473ffffffffffffffffffffffffffffffffffffffff1673ffffffffffffffffffffffffffffffffffffffff166113ec610ff9565b73ffffffffffffffffffffffffffffffffffffffff1614151561149d576040517f08c379a000000000000000000000000000000000000000000000000000000000815260040180806020018281038252602c8152602001807f5365636f6e646172793a2063616c6c6572206973206e6f74207468652070726981526020017f6d617279206163636f756e74000000000000000000000000000000000000000081525060400191505060405180910390fd5b60003490506114f481600160008573ffffffffffffffffffffffffffffffffffffffff1673ffffffffffffffffffffffffffffffffffffffff1681526020019081526020016000205461158990919063ffffffff16565b600160008473ffffffffffffffffffffffffffffffffffffffff1673ffffffffffffffffffffffffffffffffffffffff168152602001908152602001600020819055508173ffffffffffffffffffffffffffffffffffffffff167f2da466a7b24304f47e87fa2e1e5a81b9831ce54fec19055ce277ca2f39ba42c4826040518082815260200191505060405180910390a25050565b6000808284019050838110151515611609576040517f08c379a000000000000000000000000000000000000000000000000000000000815260040180806020018281038252601b8152602001807f536166654d6174683a206164646974696f6e206f766572666c6f77000000000081525060200191505060405180910390fd5b809150509291505056fea165627a7a72305820781859ef06b67a5be56a8f8a0eef95bcae0d60bc508748ab92cbcee4479be4160029",
  "source": "pragma solidity 0.5.0;\r\n\r\nimport \"@openzeppelin/contracts/token/ERC20/ERC20.sol\";\r\nimport \"@openzeppelin/contracts/token/ERC20/ERC20Pausable.sol\";\r\nimport \"@openzeppelin/contracts/token/ERC20/ERC20Mintable.sol\";\r\nimport \"@openzeppelin/contracts/token/ERC20/TokenTimelock.sol\";\r\nimport \"@openzeppelin/contracts/crowdsale/Crowdsale.sol\";\r\nimport \"@openzeppelin/contracts/crowdsale/emission/MintedCrowdsale.sol\";\r\nimport \"@openzeppelin/contracts/crowdsale/validation/TimedCrowdsale.sol\";\r\nimport \"@openzeppelin/contracts/crowdsale/validation/CappedCrowdsale.sol\";\r\nimport \"@openzeppelin/contracts/crowdsale/distribution/RefundableCrowdsale.sol\";\r\n\r\ncontract BarcaTokenCrowdsale is Crowdsale, MintedCrowdsale, CappedCrowdsale, TimedCrowdsale, RefundableCrowdsale  {\r\n\r\n  // Token Distribution\r\n  uint256 public tokenSalePercentage    = 50;\r\n  uint256 public founderPercentage      = 10;\r\n\r\n  // Token reserve funds\r\n  address[] public founders;\r\n\r\n  // Token time lock\r\n  uint256 public releaseTime;\r\n  address[5] public foundersTimelock;\r\n  uint256 public initialSupply;\r\n\r\n  //debug\r\n  uint256 public _alreadyMinted;\r\n  uint256 public _finalTotalSupply;\r\n\r\n  constructor(\r\n    uint256 _rate,\r\n    address payable _wallet,\r\n    ERC20 _token,\r\n    uint256 _cap,\r\n    uint256 _openingTime,\r\n    uint256 _closingTime,\r\n    uint256 _initialSupply,\r\n    address[] memory _founders,\r\n    uint256 _releaseTime\r\n  )\r\n    Crowdsale(_rate, _wallet, _token)\r\n    CappedCrowdsale(_cap)\r\n    TimedCrowdsale(_openingTime, _closingTime)\r\n    RefundableCrowdsale(_initialSupply / 2)\r\n    public\r\n  {\r\n    require(_initialSupply <= _cap);\r\n    require(_founders.length >= 5);\r\n    founders      = _founders;\r\n    releaseTime   = _releaseTime;\r\n    initialSupply = _initialSupply;\r\n  }\r\n\r\n  /**\r\n  * @dev Extend parent behavior requiring purchase to respect inital supply.\r\n  * @param _beneficiary Token purchaser\r\n  * @param _weiAmount Amount of wei contributed\r\n  */\r\n  function _preValidatePurchase(\r\n    address _beneficiary,\r\n    uint256 _weiAmount\r\n  )\r\n    internal view\r\n  {\r\n    super._preValidatePurchase(_beneficiary, _weiAmount);\r\n    require(weiRaised().add(_weiAmount) <= initialSupply);\r\n  }\r\n\r\n  /**\r\n   * @dev enables token transfers, called when owner calls finalize()\r\n  */\r\n  function _finalization() internal {\r\n    if (goalReached()) {\r\n      _alreadyMinted = token().totalSupply();\r\n      _finalTotalSupply = _alreadyMinted.div(tokenSalePercentage).mul(100);\r\n\r\n      for (uint i = 0; i < 5; i++) {\r\n        foundersTimelock[i]  = address(new TokenTimelock(token(), founders[i], releaseTime));\r\n        ERC20Mintable(address(token())).mint(foundersTimelock[i],  _finalTotalSupply.mul(founderPercentage).div(100));\r\n      }\r\n\r\n      //_mintableToken.finishMinting();\r\n      ERC20Mintable(address(token())).renounceMinter();\r\n\r\n      // Unpause the token\r\n      ERC20Pausable(address(token())).unpause();\r\n      //_pausableToken.transferOwnership(wallet);\r\n    }\r\n\r\n    super._finalization();\r\n  }\r\n\r\n}\r\n",
  "sourcePath": "C:/Users/tianxi.zhang/Documents/Test_Projects/eth_swap/src/contracts/BarcaTokenCrowdsale.sol",
  "compiler": {
    "name": "solc",
    "version": "0.5.0+commit.1d4f565a.Emscripten.clang"
  },
  "schemaVersion": "3.3.4",
  "updatedAt": "2021-05-08T04:37:39.632Z",
  "networkType": "ethereum",
  "devdoc": {
    "methods": {
      "buyTokens(address)": {
        "details": "low level token purchase ***DO NOT OVERRIDE*** This function has a non-reentrancy guard, so it shouldn't be called by another `nonReentrant` function.",
        "params": {
          "beneficiary": "Recipient of the token purchase"
        }
      },
      "cap()": {
        "return": "the cap of the crowdsale."
      },
      "capReached()": {
        "details": "Checks whether the cap has been reached.",
        "return": "Whether the cap was reached"
      },
      "claimRefund(address)": {
        "details": "Investors can claim refunds here if crowdsale is unsuccessful.",
        "params": {
          "refundee": "Whose refund will be claimed."
        }
      },
      "closingTime()": {
        "return": "the crowdsale closing time."
      },
      "finalize()": {
        "details": "Must be called after crowdsale ends, to do some extra finalization work. Calls the contract's finalization function."
      },
      "finalized()": {
        "return": "true if the crowdsale is finalized, false otherwise."
      },
      "goal()": {
        "return": "minimum amount of funds to be raised in wei."
      },
      "goalReached()": {
        "details": "Checks whether funding goal was reached.",
        "return": "Whether funding goal was reached"
      },
      "hasClosed()": {
        "details": "Checks whether the period in which the crowdsale is open has already elapsed.",
        "return": "Whether crowdsale period has elapsed"
      },
      "isOpen()": {
        "return": "true if the crowdsale is open, false otherwise."
      },
      "openingTime()": {
        "return": "the crowdsale opening time."
      },
      "rate()": {
        "return": "the number of token units a buyer gets per wei."
      },
      "token()": {
        "return": "the token being sold."
      },
      "wallet()": {
        "return": "the address where funds are collected."
      },
      "weiRaised()": {
        "return": "the amount of wei raised."
      }
    }
  },
  "userdoc": {
    "methods": {}
  }
}